:020000040800F2
:10000000E0120020450100084D0100084F010008E2
:1000100051010008530100085501000800000000CC
:100020000000000000000000000000005701000870
:1000300059010008000000005B0100085D01000894
:100040005F0100085F0100085F0100085F01000810
:100050005F0100085F0100085F010008510200080D
:100060005F0100085F0100085F0100085F010008F0
:100070005F0100085F0100085F0100085F010008E0
:100080005F0100085F0100085F0100085F010008D0
:100090005F0100085F0100085F0100085F010008C0
:1000A0005F0100085F0100085F0100085F010008B0
:1000B0005F0100085F0100085F0100085F010008A0
:1000C0005F0100085F0100085F0100085F01000890
:1000D0005F0100085F0100085F0100086D1800085B
:1000E0005F0100085F0100085F0100085F01000870
:1000F0005F0100085F0100085F0100085F01000860
:100100005F0100085F0100085F0100085F0100084F
:100110005F0100085F0100085F0100085F0100083F
:100120005F0100085F0100085F0100085F0100082F
:10013000DFF80CD000F03CF800480047ED1D000847
:10014000E01200200648804706480047FEE7FEE729
:10015000FEE7FEE7FEE7FEE7FEE7FEE7FEE7FEE777
:100160000D18000831010008D2B201E000F8012B9F
:10017000491EFBD270470022F6E710B513460A4627
:1001800004461946FFF7F0FF204610BD30B505467E
:100190002A460B4612F8010B13F8014B08B1A04296
:1001A000F8D01CB1002802D06D1CF1E7284630BD04
:1001B000064C074D06E0E06840F0010394E80700B4
:1001C00098471034AC42F6D3FFF7B6FF402A000838
:1001D000602A000870B58C1810F8015B15F0070351
:1001E00001D110F8013B2A1106D110F8012B03E0D0
:1001F00010F8016B01F8016B5B1EF9D12B0705D4D8
:100200000023521E0DD401F8013BFAE710F8013B20
:10021000CB1A921C03E013F8015B01F8015B521E3C
:10022000F9D5A142D8D3002070BD0000002004E021
:100230000021054A1154411CC8B23228F8DB0021C4
:10024000024A117070470000AC0E0020010000202F
:1002500010B5022000F024F8012811D141030A480A
:1002600000F0BEF94FF40051074800F0BBF920211F
:10027000064800F0B7F906480078401C04490870A9
:10028000022000F007F810BD0010014000200140DE
:10029000000000200149086070470000140401407C
:1002A000014600200022074B1B6803EA0102054BB0
:1002B00014331B680B4013B10AB1012000E0002089
:1002C0007047000000040140002123498279002A80
:1002D0003AD00A46126803689A430B461A600A1D10
:1002E000126803689A430B1D1A60027911440A6868
:1002F00003681A430A60184A0832126803689A436E
:10030000154B08331A601A1D126803689A43124B82
:100310000C331A604279102A0ED11A1F1268036832
:100320001A430D4B08331A601A1D126803681A43EA
:10033000094B0C331A600DE00749427911440A68F1
:1003400003681A430A6005E0027911440A680368E9
:100350009A430A60704700000004014051B18200D6
:10036000A2F1C042126842F001038200A2F1C04231
:10037000136009E08200A2F1C0421268034B1A40E8
:100380008300A3F1C0431A6070470000FEFF0F0016
:10039000D0E901121143C268114302691143426955
:1003A000114382691143C2691143026A1143426ACF
:1003B0001143826A1143C26A1143026B11430268FE
:1003C0009200A2F1C0421160816808290BD1016836
:1003D0008900A1F1C041096841F04002016889002B
:1003E000A1F1C0410A60416B0968426B526841EA61
:1003F0000211426B926841EA0221426B928941EA02
:100400000241426B128A41EA0251426B127D41EA7B
:100410000261426B926911430268521C9200A2F180
:10042000C0421160C16AB1F5804F1BD1816B096870
:10043000826B526841EA0211826B926841EA0221A2
:10044000826B128A41EA0251826B127D41EA02619B
:10045000826B9269114302689200A2F1C042C2F815
:10046000041107E06FF0704201688900A1F1C041FA
:10047000C1F804217047000030B500228B071C0F23
:100480000F2303FA04F20B4B8C1053F824309343E0
:10049000084C8D1044F8253023468C1053F8243036
:1004A0008C07240F00FA04F42343024C8D1044F807
:1004B000253030BD080001402DE9F04102460025FD
:1004C0000026002000230024002791F803C00CF030
:1004D0000F0591F803C00CF0100CBCF1000F03D015
:1004E00091F802C04CEA050591F800C0BCF1000F7C
:1004F00031D0146800202BE04FF0010C0CFA00F30F
:10050000B1F800C00CEA03069E4220D183004FF0F0
:100510000F0C0CFA03F7BC4305FA03FC4CEA040485
:1005200091F803C0BCF1280F06D14FF0010C0CFA72
:1005300000FCC2F814C00AE091F803C0BCF1480FF7
:1005400005D14FF0010C0CFA00FCC2F810C0401CA1
:100550000828D1D31460B1F800C0BCF1FF0F34DD1E
:10056000546800202EE000F1080C4FF0010808FA52
:100570000CF3B1F800C00CEA03069E4221D18300BF
:100580004FF00F0C0CFA03F7BC4305FA03FC4CEADE
:10059000040491F803C0BCF1280F05D100F1080C48
:1005A00008FA0CF8C2F8148091F803C0BCF1480FA7
:1005B00007D100F1080C4FF0010808FA0CF8C2F856
:1005C0001080401C0828CED35460BDE8F08102465C
:1005D000002093680B400BB1012000E00020704721
:1005E000416170470161704710B5044621460448D7
:1005F000FFF7CCFD08B1012010BD0020FCE7000092
:10060000AC0E00202DE9F04F81468A4615461E4665
:10061000A5F120001FFA80FB0C2306225146484614
:1006200000F002F92C204FF0D8410880002419E096
:100630000BEB4B000D4901EB800010F80480002704
:100640000CE008F0010010B10948068002E000202B
:10065000074908804FEA6808781C87B2062FF0DB4C
:10066000601C84B20C2CE3DBBDE8F08FCA250008C7
:100670000008006CF0B505460E4614461F4613E010
:10068000E02D03DD142506F10C0086B2B6F59A7F45
:1006900001DD0025002622783B4631462846FFF73B
:1006A000B1FFA81D85B2641C20780028E8D1F0BDF8
:1006B00000B59DB00121080200F04CFD012007901B
:1006C000002008900F20099000200A900B900C90B9
:1006D0000D90009001900320029000200390049060
:1006E0000590069006200E9000200F900820109094
:1006F00010201190002012901490139015901690D5
:100700004FF480501790002018904FF480401990BB
:1007100000201A9007A81B90CDF870D00EA8FFF704
:1007200037FE01210620FFF719FE0EA8FFF730FE65
:1007300001210620FFF712FE1DB000BD08B5012102
:10074000080200F007FD01214FF4B47000F032FD03
:1007500010208DF8030003208DF802004FF40050A4
:10076000ADF8000010208DF8030003208DF8020082
:1007700069462548FFF7A0FE4FF40060ADF8000081
:1007800010208DF8030003208DF8020069461E48F2
:10079000FFF792FE03208DF8020018208DF8030069
:1007A0004CF20370ADF8000069461748FFF784FE6D
:1007B0004FF68070ADF8000069461448FFF77CFEE4
:1007C0001020ADF8000069460F48FFF775FE2020A5
:1007D000ADF8000069460C48FFF76EFE4FF48050FC
:1007E000ADF8000069460A48FFF766FE0120ADF843
:1007F000000069460648FFF75FFE4FF400510248CB
:10080000FFF7EEFE08BD0000001401400018014093
:100810000020014010B5FFF791FF00F069F9FFF7E4
:1008200047FF00F073F810BD30B52A244FF0D845CB
:100830002C800412114D2C80C4B22C808418641EAC
:10084000C4F30F242C808418641EE4B22C802B2463
:100850004FF0D8452C800C12084D2C80CCB22C8047
:10086000CC18641EC4F30F242C80CC18641EE4B290
:100870002C802C244FF0D8452C8030BD0008006C13
:100880002DE9F04706460F46904600250024A14674
:1008900033E018F809002038C5B2782E02DD0026B2
:1008A000781CC7B23946304600F09AFA002408E0B6
:1008B00004EB0511144A505C012100F091FE601C0C
:1008C000C4B2082CF4DB781CC1B2304600F088FAC0
:1008D000002409E004EB051108310B4A505C0121AA
:1008E00000F07EFE601CC4B2082CF3DB06F10800A9
:1008F000C6B209F1010000F0FF0918F8090000284C
:10090000C7D1BDE8F08700000200002010B5CF205D
:100910004FF0D8410880002074490880C120088029
:1009200030200880ED204FF0D841088064206F49C6
:100930000880032008801220088081200880E82099
:100940004FF0D84108808520684908801020088031
:100950007A200880CB204FF0D841088039206349A5
:1009600008802C2008800020088034200880022085
:100970000880F7204FF0D841088020205B4908808C
:10098000EA204FF0D84108800020584908800880AC
:10099000C0204FF0D84108801B2054490880C12056
:1009A0004FF0D8410880012050490880C5204FF001
:1009B000D841088030204D4908800880C7204FF07A
:1009C000D8410880B7204949088036204106088070
:1009D0004820464908803A204FF0D84108805520E9
:1009E00042490880B1204FF0D841088000203F499B
:1009F00008801A200880B620410608800A203B495A
:100A00000880A2200880F2204FF0D8410880002002
:100A10003649088026204FF0D8410880012033490C
:100A20000880E0204FF0D84108800F202F4908802F
:100A30002A20088028200880082008800E200880AE
:100A40000820088054200880A920088043200880BE
:100A50000A2008800F200880002008800880088075
:100A60000880E1204FF0D841088000201F4908800D
:100A70001520088017200880072008801120088092
:100A8000062008802B200880562008803C20088003
:100A900005200880102008800F2008803F20088053
:100AA00008800F2008802B204FF0D84108800020BC
:100AB0000E4908800880012008803F2008802A20F5
:100AC0004FF0D8410880002008490880088008803D
:100AD000EF20088011204FF0D8410880782001F0E5
:100AE00052FB29204FF0D841088010BD0008006C4F
:100AF00010B54FF400610848FFF772FD4FF47A70AB
:100B000001F041FB4FF400610348FFF76BFD1E202D
:100B100001F039FB10BD000000140140012804D091
:100B2000022820D003285AD13BE036214A06118002
:100B3000C8212E4A11802A214FF0D842118000216D
:100B40002A4A118011801180EF2111802B214FF052
:100B5000D84211800021254A118011800121118085
:100B60003F2111803BE036214A06118068211F4A4F
:100B700011802A214FF0D842118000211B4A118098
:100B80001180012111803F2111802B214FF0D8428B
:100B900011800021154A118011801180EF211180F0
:100BA0001DE036214A0611802821104A11802A2191
:100BB0004FF0D842118000210C4A11801180012190
:100BC00011803F2111802B214FF0D842118000214C
:100BD000064A118011801180EF21118000BF00BFF3
:100BE0002C214FF0D8421180704700000008006CA3
:100BF00070B5002100230F22C47804B3154C24687B
:100C000004F4E064C4F5E064210AC1F10403CA40BD
:100C1000447804FA03F184781440214309010E4C0E
:100C20000678A155047804F01F050124AC4005782E
:100C30006D11AD0005F1E025C5F8004109E004782B
:100C400004F01F050124AC40044D0678761145F8E8
:100C5000264070BD0CED00E000E400E080E100E023
:100C600002490143024A1160704700000000FA0582
:100C70000CED00E070B50646002419E004F1B00167
:100C8000C8B2002100F0ACFC0021022000F0A8FC5A
:100C90000021102000F0A4FC002505E001213046D1
:100CA00000F09EFC681CC5B2802DF7DB601CC4B24E
:100CB000082CE3DB70BD000010B54FF4006147481D
:100CC000FFF78EFC10214548FFF78CFC0A2001F04D
:100CD00063FA4FF400614148FFF784FC10213F485C
:100CE000FFF77EFCC82001F057FA0021AE2000F08B
:100CF00077FC0021084600F073FC0021102000F072
:100D00006FFC0021402000F06BFC0021812000F0EE
:100D100067FC0021CF2000F063FC0021A12000F03F
:100D20005FFC0021C82000F05BFC0021A62000F041
:100D300057FC0021A82000F053FC00213F2000F0C8
:100D40004FFC0021D32000F04BFC0021084600F0AE
:100D500047FC0021D52000F043FC0021802000F05A
:100D60003FFC0021D92000F03BFC0021F12000F0E5
:100D700037FC0021DA2000F033FC0021122000F0C3
:100D80002FFC0021DB2000F02BFC0021402000F094
:100D900027FC0021202000F023FC0021022000F08D
:100DA0001FFC00218D2000F01BFC0021142000F00E
:100DB00017FC0021A42000F013FC0021A62000F065
:100DC0000FFC0021AF2000F00BFCFF20FFF752FFCB
:100DD0000021084600F004F810BD0000002001408A
:100DE00070B504460D4605F1B001C8B2002100F00F
:100DF000F7FB102141EA1410002100F0F1FB04F090
:100E00000F0141F00100002100F0EAFB70BD00007D
:100E1000F8B50025012140F2D51000F0CBF90220F1
:100E2000ADF8000048208DF8030003208DF8020083
:100E300069464648FFF740FB4FF49070ADF800005C
:100E400010208DF8030003208DF802006946404809
:100E5000FFF732FBFF20ADF8000048208DF80300BB
:100E600003208DF8020069463A48FFF725FB4FF44E
:100E70000050ADF8000010208DF8030003208DF81D
:100E8000020069463348FFF717FB4FF40040ADF806
:100E9000000010208DF8030003208DF80200694641
:100EA0002D48FFF709FB4020ADF8000010208DF819
:100EB000030003208DF8020069462848FFF7FCFA7A
:100EC0004FF490712248FFF78DFB4FF400512148F9
:100ED000FFF788FB4FF400411F48FFF783FB4021D9
:100EE0001E48FFF77FFB00F0EFF98021122000F091
:100EF00021FB08B10120F8BD32264FF47A7106FBC0
:100F000001F001F09AF900BF0B2000F047FA044607
:100F1000732C01D00220EEE70A2000F03FFA0446CD
:100F2000762C01D00220E6E700250AE00C4A02EB0D
:100F3000450251780A4A12F8150000F0FBFA681CC5
:100F400085B2A82DF2D30020D5E7000000080140AB
:100F50000020014000100140001C01400018014029
:100F60007A2400080EB501210020FFF785FA02203F
:100F7000019000208DF8080008208DF8090001205C
:100F80008DF80A0001A8FFF79FF94FF4A060FFF762
:100F900067FE07208DF8000000208DF80100012079
:100FA0008DF802008DF803006846FFF721FE0EBDA4
:100FB0002DE9F04705460E469046994605EB480058
:100FC0001FFA80FA06EB490087B2B7F5447F02DDCD
:100FD000A7F5447087B2032000F0E0F9044604F05E
:100FE000F0040AF00301284661F39F000443214600
:100FF000032000F09FFAC5F38701192000F09AFA48
:10100000CAF387011A2000F095FA322000F0C6F9E1
:10101000044604F0C00407F00701304661F3DF0026
:101020000443C6F3C701172000F084FAC7F3C701D1
:10103000182000F07FFABDE8F0870000F0B5ADF5AC
:10104000217D4FF4207101A8FFF795F800253A485B
:10105000007800286CD00220FFF760FD402137485F
:10106000FFF7BEFA4FF400413548FFF7B9FA4FF4E5
:1010700000413348FFF7B6FA4FF400413048FFF71C
:10108000AFFA40212D48FFF7ADFA4FF400412C484C
:10109000FFF7A8FA002645E000272CE04FF40041B6
:1010A0002748FFF79DFA27488068C4B22846691C84
:1010B0008DB201A90C544FF400412148FFF792FA78
:1010C0004FF6FF7000EA04244FF400411C48FFF77C
:1010D00087FA1C488068C0B204432846691C8DB258
:1010E00001A90C544FF400411548FFF77BFA16484C
:1010F0000480781C87B2082FD0DBB5F5207F0FD194
:10110000124800F00FFE01A9485D00F01FFC01A885
:10111000415D0F4800F071FD00250C4800F0E0FD36
:10112000701C86B2B6F5165FB6DB00200249087067
:101130000DF5217DF0BD00000000002000180140E9
:10114000001C0140001001400008006C0002040077
:101150000044004029B1064A52690243044B5A61D7
:1011600004E0034A52698243014B5A617047000010
:101170000010024029B1064AD2690243044BDA61E9
:1011800004E0034AD2698243014BDA6170470000F0
:101190000010024029B1064A12690243044B1A6149
:1011A00004E0034A12698243014B1A617047000050
:1011B0000010024029B1064A92690243044B9A6129
:1011C00004E0034A92698243014B9A617047000030
:1011D0000010024029B1064AD2680243044BDA608B
:1011E00004E0034AD2688243014BDA607047000092
:1011F0000010024030B500210022002400232D4DB4
:101200006D6805F00C0121B1042905D0082923D10E
:1012100005E0294D056022E0274D05601FE0254DC2
:101220006D6805F47012234D6D6805F48034022555
:1012300005EB92421CB9214D554305600BE01D4D55
:101240006D6805F400351DB11C4D5543056002E085
:10125000194D5543056002E0174D056000BF00BF02
:10126000144D6D6805F0F0010909154D6B5C0568BA
:10127000DD4045600F4D6D6805F4E061090A104DD1
:101280006B5C4568DD4085600A4D6D6805F4605112
:10129000C90A0B4D6B5C4568DD40C560054D6D6846
:1012A00005F44041890B074D6B5CC568B5FBF3F550
:1012B000056130BD0010024000127A0000093D00B7
:1012C000920E0020A20E002008B501210802FFF7AF
:1012D00071FF0420ADF8000010208DF803000320FA
:1012E0008DF8020069460848FFF7E6F80820ADF8D7
:1012F000000010208DF8030003208DF802006946DD
:101300000148FFF7D9F808BD0020014010B5322090
:1013100000F0DBFF04210C48FFF764F908210A48BC
:10132000FFF760F9322000F0D0FF08210648FFF7F0
:1013300057F9322000F0C9FF04210348FFF750F9A4
:10134000322000F0C2FF10BD0020014070B5002423
:1013500000F04CF8082519E0322000F0B6FF082113
:101360000D48FFF73FF96006040E04210A48FFF715
:101370002EF9012801D1601CC4B2322000F0A5FF73
:1013800008210548FFF72CF9681EC5B2002DE3DCE3
:1013900000F042F8204670BD0020014070B50446C0
:1013A000002500F04FF8422000F080F8642000F0A3
:1013B0008CFF204600F07AF8642000F086FF00F0F1
:1013C0005BF8642000F081FF00F03CF8432000F05F
:1013D0006DF8642000F079FFFFF7B8FF0546FFF7CE
:1013E00095FF00F049F8284670BD000008B50121BE
:1013F0000802FFF7DFFE0420ADF8000048208DF85A
:10140000030003208DF8020069460248FFF754F8F4
:1014100008BD00000020014008B501210802FFF7C7
:10142000C9FE0420ADF8000010208DF80300032051
:101430008DF8020069460248FFF73EF808BD00003B
:101440000020014010B504210A48FFF7CBF808211D
:101450000848FFF7C7F8322000F037FF042105489D
:10146000FFF7BEF8322000F030FF08210148FFF7F7
:10147000B7F810BD0020014010B504210A48FFF75D
:10148000AFF8322000F021FF08210748FFF7AAF843
:10149000322000F01AFF04210348FFF7A3F832209E
:1014A00000F013FF10BD00000020014070B504469D
:1014B00000261DE004F0800020B104211C48FFF745
:1014C00091F803E004211A48FFF78AF86006040E39
:1014D000322000F0FAFE08211548FFF783F8322089
:1014E00000F0F3FE08211248FFF77AF8701CC6B22C
:1014F000082EDFDBFFF77AFF322000F0E6FE08213E
:101500000B48FFF76FF8322000F0DFFE0421084897
:10151000FFF75DF8012801D1012500E00025082131
:101520000348FFF75DF8FFF777FF284670BD00001E
:101530000020014070B505460C460026FFF782FFEB
:101540004220FFF7B3FF00B10126642000F0BDFE8A
:101550002846FFF7ABFF00B10126642000F0B5FE7E
:101560002046FFF7A3FF00B10126FFF785FF3046B5
:1015700070BD000000B585B001218803FFF7FAFDBA
:101580000021164800F062F80020ADF800004FF48A
:101590008270ADF802000020ADF80400ADF806003E
:1015A000ADF808004FF40070ADF80A002020ADF847
:1015B0000C000020ADF80E000720ADF810006946C1
:1015C000064800F091F80121044800F03FF800219E
:1015D000FF2000F005F805B000BD00000038004015
:1015E00070B505460E46002426B920211548FEF7A1
:1015F000F7FF03E020211348FEF7F4FF05E0601C2D
:10160000C4B2C82C01DD002070BD02210E4800F0DC
:101610005DF80028F3D029460B4800F063F8002459
:1016200005E0601CC4B2C82C01DD0020ECE70121FC
:10163000054800F04BF80028F3D0034800F04FF8BD
:10164000C0B2E1E7000C01400038004021B102883F
:1016500042F04002028004E002884FF6BF731A4055
:101660000280704708B501214FF48470FFF7A2FD96
:101670002020ADF8000003208DF8020010208DF826
:10168000030069460F48FEF717FF4FF42040ADF8FE
:10169000000003208DF8020018208DF80300694631
:1016A0000848FEF709FF4FF40160ADF80000032081
:1016B0008DF8020010208DF8030069460248FEF7FD
:1016C000FBFE08BD000C0140002001400246002046
:1016D00013890B400BB1012000E000207047014648
:1016E000888970478181704710B50022028802F412
:1016F00041520B884C8823438C882343CC88234356
:101700000C8923434C8923438C892343CC8923436D
:101710001A430280838B4FF2FF74234083830B8A2A
:10172000038210BD10B500F001F810BD0CB500200B
:10173000019000903348006840F4803031490860DF
:1017400000BF3048006800F4003000900198401C51
:101750000190009818B90198B0F5A06FF1D129480F
:10176000006800F4003010B10120009001E000207A
:1017700000900098012843D12348006840F01000F1
:10178000214908600846006820F003000860084608
:10179000006840F0020008601A4840681949486033
:1017A0000846406848600846406840F480604860E9
:1017B0000846406820F47C1048600846406840F4C1
:1017C000E81048600846006840F08070086000BF7C
:1017D0000C48006800F000700028F9D00948406803
:1017E00020F00300074948600846406840F00200C6
:1017F000486000BF0348406800F00C000828F9D199
:101800000CBD0000001002400020024010B513483B
:10181000006840F00100114908600846406810491E
:1018200008400E494860084600680E4908400B49C8
:1018300008600846006820F4802008600846406878
:1018400020F4FE0048604FF41F008860FFF76AFF35
:101850004FF000600449086010BD00000010024015
:101860000000FFF8FFFFF6FE08ED00E010B540F2C3
:1018700025510E4800F001F9B0B10C4800F0B8F95C
:101880000B490C4A127888540A480078401C0949D0
:10189000087008460078322801DD0020087040F208
:1018A0002551024800F062F810BD000000480040D9
:1018B000AC0E00200100002000B587B00121880493
:1018C000FFF758FC204800F07DF84FF4E13003901A
:1018D0000020ADF81000ADF81200ADF81400ADF81E
:1018E00018000C20ADF8160003A9174800F014F9F1
:1018F0000020ADF80400ADF80600ADF80800ADF822
:101900000A0001A9104800F040F8012240F22551D8
:101910000D4800F0DCF801210B4800F047F84FF4C7
:10192000A060FFF79DF927208DF8000002208DF8B8
:10193000010003208DF8020001208DF803006846A5
:10194000FFF756F907B000BD0048004010B5044647
:1019500000BF4021044800F083F80128F9D1214656
:10196000014800F04AF910BD0048004010B50022BF
:10197000002340F66A14A14200D100BF0A120124DC
:101980009440A3B2DC43048010BD10B50246002091
:10199000108A4FF2FF0318400B884C8823438C8831
:1019A0002343CC8823431843108210BD21B1828980
:1019B00042F40052828104E082894DF6FF731A409E
:1019C0008281704710B504462048844209D1012124
:1019D0008803FFF7FFFB00214FF48040FFF7FAFB7D
:1019E00032E01B48844209D101214804FFF7D2FBB1
:1019F00000214FF40030FFF7CDFB25E0154884426D
:101A000009D101218804FFF7C5FB00214FF4802094
:101A1000FFF7C0FB18E01048844209D10121C80437
:101A2000FFF7B8FB00214FF40020FFF7B3FB0BE0FA
:101A30000A48844208D101210805FFF7ABFB0021C9
:101A40004FF48010FFF7A6FB10BD000000380140E6
:101A50000044004000480040004C0040005000405E
:101A600002460020B1F5007F00D100BF13880B4073
:101A70000BB1012000E00020704770B50246002441
:101A800000230025002040F66A16B14200D100BFB5
:101A9000C1F3421501F01F03012606FA03F3012DDD
:101AA00002D19689334006E0022D02D1168A3340D6
:101AB00001E0968A33400C12012606FA04F41688D7
:101AC000344013B10CB1012000E0002070BDF0B52E
:101AD0000346002400260025002040F66A17B9427C
:101AE00000D100BF1846C1F3421401F01F060127C0
:101AF00007FA06F5012C01D10C3004E0022C01D1CB
:101B0000103000E014301AB107682F43076002E07C
:101B10000768AF430760F0BD2DE9F04786B0054682
:101B20000E460024A24600BFA1460027B08900B19E
:101B300000BF2F462C8A4CF6FF700440F088044307
:101B40002C82AC894EF6F3100440B08831890843EA
:101B5000718908430443AC81AC8A4FF6FF400440CE
:101B6000B0890443AC8201A8FFF744FB1F488742B9
:101B700002D1DDF810A001E0DDF80CA0A88900F486
:101B8000004040B10AEBCA0000EB0A10316849007E
:101B9000B0FBF1F807E00AEBCA0000EB0A1031686D
:101BA0008900B0FBF1F86420B8FBF0F004012009D3
:101BB000642101FB1089A88900F4004040B1322063
:101BC00000EBC900B0FBF1F000F00700044308E0AF
:101BD000322000EB09106421B0FBF1F000F00F009F
:101BE00004432C8106B0BDE8F087000000380140B6
:101BF00001468888C0F308007047C1F3080282805C
:101C000070470000014A024900F013B8BD1C0008EB
:101C1000A80E002002E008C8121F08C1002AFAD14D
:101C200070477047002001E001C1121F002AFBD15C
:101C300070472DE9F04116460F460446002503E0A3
:101C40003946B047641C6D1C20780028F8D128461E
:101C5000BDE8F08108B501214820FFF7ABFA4FF449
:101C60008060ADF8000003208DF8020018208DF888
:101C7000030069460F48FEF71FFC4FF40060ADF803
:101C8000000004208DF8030069460A48FEF714FCA2
:101C90000120ADF8000003208DF8020010208DF81F
:101CA000030069460448FEF707FC01210248FEF7DD
:101CB00099FC08BD000C01400018014070B50446B5
:101CC0000D46E1B20548FFF798FF00BF80210348A9
:101CD000FFF7C6FE0028F9D0204670BD004800403E
:101CE00081B2094A904201D1084A1161084A9042E2
:101CF00001D1084A1160084A904202D0074A904236
:101D000001D1074A116070474000010000200140E6
:101D1000000102001008014000010300000204005D
:101D2000100C014081B2094A904201D1084A516128
:101D3000084A904201D1084A1160084A904202D0F4
:101D4000074A904201D1074A1160704740000100E4
:101D500000200140000102001408014000010300BE
:101D600000020400140C014008B501214FF48670F4
:101D7000FFF720FA4020ADF8000010208DF8030096
:101D800003208DF8020069460A48FEF795FB4FF4E0
:101D90008070ADF8000069460748FEF78DFB4FF4F0
:101DA0004070ADF8000069460448FEF785FB00F07E
:101DB00007F808BD0020014000080140000C014068
:101DC00010B540210648FEF70DFC4FF48071054820
:101DD000FEF708FC4FF440710348FEF703FC10BD0A
:101DE0000020014000080140000C0140FFF7BCFF4B
:101DF000FFF730FFFFF760FD642000F0BBF9FFF74D
:101E000031FCFFF7B7FBFEF757FF0020FEF732FF6C
:101E1000FEF700FD02E0142000F0ACF9FEF7F8FF39
:101E20000028F8D1142000F0A5F9FFF79BF84FF433
:101E3000A073F022B0210C20FFF7BAF84FF48071A4
:101E40008048FEF7CDFB80A200210120FEF718FD9F
:101E500081A202210120FEF713FD81A204210120AD
:101E6000FEF70EFD4FF47A7000F084F90BE07FA0CE
:101E7000FFF7C8FE7FA204210120FEF701FD4FF409
:101E8000FA7000F077F97CA0FEF7AEFB0028EED0E8
:101E9000FEF7CCF97948FFF745FF0BE078A0FFF794
:101EA000B1FE7BA204210120FEF7EAFC4FF4FA7098
:101EB00000F060F970A0FEF797FB044677A0FEF7EC
:101EC00093FB0443002CE9D06BA0FEF78DFB80B19F
:101ED00075A0FFF797FE77A204210120FEF7D0FC42
:101EE00077A204210120FEF7CBFC4FF4FA7000F03A
:101EF00041F9FEF79BF90BE073A0FFF783FE76A292
:101F000004210120FEF7BCFC4FF4FA7000F032F916
:101F100059A0FEF769FB0028EED0FEF787F90BE029
:101F200070A0FFF76FFE75A204210120FEF7A8FC48
:101F30004FF4FA7000F01EF94FA0FEF755FB002891
:101F4000EED0FEF773F90BE070A0FFF75BFE72A214
:101F500004210120FEF794FC4FF4FA7000F00AF916
:101F600045A0FEF741FB0028EED0FEF75FF967E0E1
:101F7000052000F0FFF8FFF761F86AA206210120B2
:101F8000FEF77EFC6BA0FEF72FFB88B1002240F22B
:101F900025516B48FFF79BFD6A48FFF7C3FEFEF72C
:101FA00045F9012240F225516548FFF790FD40E0D8
:101FB00065A0FEF719FB88B1002240F22551604868
:101FC000FFF785FD5F48FFF78BFEFEF72FF9012233
:101FD00040F225515A48FFF77AFD2AE05DA0FEF74E
:101FE00003FB88B1002240F225515548FFF76FFDF1
:101FF0005B48FFF797FEFEF719F9012240F22551E1
:102000004F48FFF764FD14E056A0FEF7EDFA80B1EB
:10201000002240F225514A48FFF759FD5048FFF78A
:102020005FFEFEF703F9012240F225514448FFF715
:102030004EFD4FF6FF734EA214210846FEF71AFB21
:1020400096E70000002001404C4956452043414D91
:1020500045524120545300005374617475733A0023
:1020600057616974696E672E2E2E000041540D0A67
:1020700000000000415200004F4B0000000103002F
:1020800041542B43574D4F44453D330D0A0000004A
:1020900041542B43574D4F44453D33006E6F2063F1
:1020A00068616E676500000041542B5253540D0A5D
:1020B00000000000202020202020202020202000C0
:1020C00041542B525354000041542B4349504D5519
:1020D000583D310D0A00000041542B4349504D55E5
:1020E000583D310041542B434950534552564552B7
:1020F0003D312C353030300D0A00000041542B4367
:1021000049505345525645523D31000041542B43EE
:10211000494653520D0A000041542B43494653523D
:10212000000000004F563736373020576F726B690A
:102130006E6721004553504B4C4544310000000070
:102140000048004040000100455350474C45443191
:10215000000000004553504B4C4544320000000045
:1021600000010200455350474C4544320000000036
:102170005441470010B504464FF47A7104FB01F056
:1021800000F013F810BD10B504464FF47A7104FB4B
:1021900001F000F0E2F810BD10B504464FF47A717A
:1021A00004FB01F000F021F910BD00B9704700BF39
:1021B00000BF00BF00BF00BF00BF00BF00BF00BF27
:1021C00000BF00BF00BF00BF00BF00BF00BF00BF17
:1021D00000BF00BF00BF00BF00BF00BF00BF00BF07
:1021E00000BF00BF00BF00BF00BF00BF00BF00BFF7
:1021F00000BF00BF00BF00BF00BF00BF00BF00BFE7
:1022000000BF00BF00BF00BF00BF00BF00BF00BFD6
:1022100000BF00BF00BF00BF00BF00BF00BF00BFC6
:1022200000BF00BF00BF00BF00BF00BF01460139B3
:10223000084600D0BCE700BFB8E700B9704700BF50
:1022400000BF00BF00BF00BF00BF00BF00BF00BF96
:1022500000BF00BF00BF00BF00BF00BF00BF00BF86
:1022600000BF00BF00BF00BF00BF00BF00BF00BF76
:1022700000BF00BF00BF00BF00BF00BF00BF00BF66
:1022800000BF00BF00BF00BF00BF00BF00BF00BF56
:1022900000BF00BF00BF00BF00BF00BF00BF00BF46
:1022A00000BF00BF00BF00BF00BF00BF00BF00BF36
:1022B00000BF00BF00BF00BF00BF00BF0146013923
:1022C000084600D0BCE700BFB8E700B9704700BFC0
:1022D00000BF00BF00BF00BF00BF00BF00BF00BF06
:1022E00000BF00BF00BF00BF00BF00BF00BF00BFF6
:1022F00000BF00BF00BF00BF00BF00BF00BF00BFE6
:1023000000BF00BF00BF00BF00BF00BF00BF00BFD5
:1023100000BF00BF00BF00BF00BF00BF00BF00BFC5
:1023200000BF00BF00BF00BF00BF00BF00BF00BFB5
:1023300000BF00BF00BF00BF00BF00BF00BF00BFA5
:1023400000BF00BF00BF00BF00BF00BF0146013992
:10235000084600D0BCE700BFB8E700B9704700BF2F
:1023600000BF00BF00BF00BF00BF00BF00BF00BF75
:1023700000BF00BF00BF00BF00BF00BF00BF00BF65
:1023800000BF00BF00BF00BF00BF00BF00BF00BF55
:1023900000BF00BF00BF00BF00BF00BF00BF00BF45
:1023A00000BF00BF00BF00BF00BF00BF00BF00BF35
:1023B00000BF00BF00BF00BF00BF00BF00BF00BF25
:1023C00000BF00BF00BF00BF00BF00BF00BF00BF15
:1023D00000BF00BF00BF00BF00BF00BF0146013902
:1023E000084600D0BCE700BFB8E700B9704700BF9F
:1023F00000BF00BF00BF00BF00BF00BF00BF00BFE5
:1024000000BF00BF00BF00BF00BF00BF00BF00BFD4
:1024100000BF00BF00BF00BF00BF00BF00BF00BFC4
:1024200000BF00BF00BF00BF00BF00BF00BF00BFB4
:1024300000BF00BF00BF00BF00BF00BF00BF00BFA4
:1024400000BF00BF00BF00BF00BF00BF00BF00BF94
:1024500000BF00BF00BF00BF00BF00BF00BF00BF84
:1024600000BF00BF00BF00BF00BF00BF0146013971
:10247000084600D0BCE700BFB8E73A0440D01214C9
:1024800032801716180419021A7B03060C00150077
:102490003E00703A713572117300A20211817A20E8
:1024A0007B1C7C287D3C7E557F688076818082887D
:1024B000838F849685A386AF87C488D789E813E085
:1024C000000010000D001428A505AB072475256336
:1024D00026A59F78A068A103A6DFA7DFA8F0A99092
:1024E000AA9413E50E610F4B16021E2721022291BA
:1024F0002907330B350B371D3871392A3C784D408D
:102500004E2069006B4074198D4F8E008F00900033
:102510009100920096009A80B084B10CB20EB38202
:10252000B80A431444F0453446584728483A598875
:102530005A885B445C675D495E0E640465206605ED
:10254000940495086C0A6D554F80508051005222BA
:10255000535E548009036E116F9F550056405740DB
:102560006A400140024013E71500589E41083F00B1
:10257000750576E14C0077013DC24B09C9604138D1
:1025800034113B02A48996009730982099309A84A0
:102590009B299C039D4C9E3F78047901C8F0790FDC
:1025A000C8007910C87E790AC880790BC801790CF7
:1025B000C80F790DC8207909C8807902C8C079038D
:1025C000C8407905C83079260900000000000000E5
:1025D00000000000000000000404040404040004DF
:1025E000000000140A0A00000000000000000000C3
:1025F00014143F140A3F0A0A000000041E150506C1
:102600000C14150F0400000012150D0A142C2A12C8
:1026100000000000040A0A1E151509360000000219
:10262000020100000000000000000020100808085F
:102630000808081020000002040808080808080418
:10264000020000000004150E0E150400000000003A
:102650000404041F04040400000000000000000043
:1026600000000002020100000000001F0000000046
:102670000000000000000000000000020000001048
:102680000808080404020202010000000E111111E2
:102690001111110E00000000040604040404040ECD
:1026A000000000000E1111080402011F00000000CC
:1026B0000E11100C1010110E00000000080C0A0A78
:1026C000091E0818000000001F01010F1010110E54
:1026D000000000000E09010F1111110E0000000092
:1026E0001F09080404040404000000000E11110E68
:1026F0001111110E000000000E1111111E10120E0A
:1027000000000000000004000000000400000000C1
:10271000000000040000000404000020100804026F
:10272000040810200000000000001F00001F00002F
:10273000000000020408102010080402000000003D
:102740000E11110804040004000000000E111915F8
:10275000151D011E0000000004040C0A0A1E12339D
:10276000000000000F12120E1212120F00000000E3
:102770001E1101010101110E000000000F121212C2
:102780001212120F000000001F120A0E0A02121F7E
:10279000000000001F120A0E0A02020700000000DB
:1027A0001C1201013911120C000000003312121E1C
:1027B00012121233000000001F0404040404041F5A
:1027C000000000003E08080808080809070000008B
:1027D00037120A060A0A1237000000000702020236
:1027E0000202223F000000001B1B1B1B15151515C4
:1027F000000000003B1216161A1A12170000000003
:102800000E1111111111110E000000000F12120E05
:1028100002020207000000000E1111111117190E1B
:10282000180000000F12120E0A12123700000000EA
:102830001E1101060810110F000000001F150404EE
:102840000404040E00000000331212121212120CC3
:10285000000000003312120A0A0C040400000000F9
:102860001515150E0A0A0A0A000000001B0A0A04C0
:10287000040A0A1B000000001B0A0A040404040ED8
:10288000000000001F0908040402121F0000001CC1
:1028900004040404040404041C00000202020404EE
:1028A000080808100000000E0808080808080808B2
:1028B0000E0000040A0000000000000000000000FC
:1028C0000000000000000000003F000400000000C5
:1028D00000000000000000000000000C121C123C70
:1028E000000000000302020E1212120E000000008F
:1028F0000000001C1202021C000000001810101C36
:102900001212123C000000000000000C121E021CFB
:10291000000000003804041E0404041E000000002F
:102920000000003C120C021E221C00000302020EDA
:102930001212123700000000040000060404040E06
:10294000000000000800000C080808080807000044
:102950000302023A0A0E12370000000007040404C2
:102960000404041F000000000000000F15151515D9
:10297000000000000000000F1212123700000000DB
:102980000000000C1212120C000000000000000FEA
:102990001212120E020700000000001C1212121C7C
:1029A000103800000000001B0602020700000000B3
:1029B0000000001E020C101E000000000004040EA7
:1029C00004040418000000000000001B1212123C56
:1029D0000000000000000037120A0C040000000094
:1029E00000000015150E0A0A000000000000001B80
:1029F0000A040A1B0000000000000037120A0C0441
:102A0000040300000000001E0804041E000000185B
:102A10000808080408080808180008080808080832
:102A2000080808080808000604040408040404044C
:102A30000600022518000000000000000000000051
:102A4000602A000800000020AC0E0000D40100083D
:102A5000D4310008AC0E002034040000241C00080F
:102A6000011572F84333301C100C0603912C40C042
:102A70007803112C043F0403212D7088FC082926BB
:102A80001820FF211E14F008F033E0184D211C031C
:102A90001E11338870000C101E21232419272110C9
:102AA00010160E45E018040225071820403D0204C8
:102AB00018E0692C20180707174080F08040403F3D
:102AC0000202010F01022842F01D0101011F0491C1
:102AD0002B80B066B1191D2901913A30CE492C14D2
:102AE0006018043C6018061D1EE010080810721FD4
:102AF0000F102020100FF05310F83620203F202018
:102B00003C700808C21E3028242221441E30088848
:102B10008848082E1820202011CC3BC020322707DF
:102B20000424243F241AF8202308084B19212036B6
:102B3000E0108888184B0F11101E380808C838207C
:102B400021523F1A702E29608F1C222121221C90B5
:102B5000111D31222211901961CAC0C26A80C65962
:102B6000081C40201050170102040810204A4001A0
:102B7000114A04012119152A403219251B0402F2B9
:102B80001B7048D13AF0501A360F1EC030C828E8E2
:102B90007028080718272423140B6F2A387E280D65
:102BA000203C23020227382008F888889F4B203FCA
:102BB000F01BC0303F1B083830191019781B08F87B
:102BC0000F194039201B100F103E8888E80810109C
:102BD000AC23201810112A035E2940223829402CEA
:102BE000221E024019A41809F808203F21010121E2
:102BF000252A0852298129424149112EC08080800E
:102C00007F0E2FF888C0281808501C0126382F295D
:102C100040292F29801B20301012F81AF814132095
:102C20003F190229204B30C0601A2074123F4BE03C
:102C300010B06B0F10B029D01AF030198022017932
:102C4000203F18242438504FC04C888870C0140C82
:102C500030204B7088C11738202121221C3A189F40
:102C60004A188239A049D0112A1F90121F240878CF
:102C7000881BC838151C07380E60191A1AF820115D
:102C800014033C0714073C03481408186880806844
:102C9000180820302C03032C30200838C82F595036
:102CA000298F29102F203826212020681145FE0267
:102CB0000202257F4040401A0CE0611C0106380BDF
:102CC000191D42FE191D527F1A04120211045A8066
:102CD000011930D91D391621180819242222223F42
:102CE00020AB390F115F3F112020110E21311A0E38
:102CF000104B2011104B88F8102A10B359401A1F9E
:102D00003F2B22130F16F0888888181A20D029D15B
:102D1000497A21176B94949493603960190F4C2071
:102D20003F21F354809898793059121AC02719D14D
:102D3000193039311F203F24022D30212A081289F1
:102D40003069D7294B2903190BC96079A019BF2B0A
:102D5000201FDD390F9C80FFA1E0191229D03BA074
:102D6000FF0C3950194112208A01C01B3324012A5B
:102D7000190F3AE0413952290F392349603C103F7D
:102D8000202C29053F010E30080601702910380853
:102D90000F300C030C300F2C49A14E312E0E312078
:102DA0000C29621D818E70183059D1215721302C89
:102DB00022213055807C0202443F404072FF390896
:102DC0003C02027C8F5440403F9008060101020201
:102DD00004042420444C2BFC940142FC1809603C60
:102DE00046407E42427E022B427E4F2808F8084829
:102DF00048F8484E052A4820123F300C84444D5D67
:102E00003525554D4440C0280C0C3C640404FC247A
:102E10000444643E56180F6323331B0F07FF030758
:102E20000B1333632330180930F8AEA8A8A8FAAC06
:102E3000053288180E48486B2A3A1AFEFF0A1A2AE9
:102E40002A6A5115C060F80E200AE8E8A8BEAEA8AC
:102E5000E808081201127F1D407F7F4A012A7FCFB8
:102E6000100A03050911FF118905C312E012F0725F
:102E7000F8073D4428FF11AA44700B8301384482AF
:102E8000929274018328087C44FF017D7D7D044972
:102E900005647D01FF9A0102818A010B01366941B7
:102EA0009949FA0101011D38083F3F0303F313114B
:102EB000011E01F1116181312D816111F1393B4117
:102EC00041072C01C1211EAB21C11439013936073C
:102ED00038D33303033F3F23E0E06A7FA81A7FBF64
:102EE0004C0618060A213640407F40401C1F2040F7
:102EF00001AB201F14113A600E6C300C03460136F2
:102F00001C07070601780904040484444444840728
:102F10001C0484C405790E09110A79112940034162
:102F200007072610181412112E0F1010100F0F3350
:102F30001F1026081012120D22186B0D120A5929A3
:102F4000590701605A8001013D20087F030C300CB5
:102F5000037F2538545458257C04047805223C40CE
:102F6000407C17FFAAAAAA28080A2CFF681E264937
:102F7000494932101D020408100F01833C8080C0B3
:102F8000015AE001BAF0012810E0E0E3E3E3E7C60C
:102F9000060CCCDCF87878F8015809B8B87870F0ED
:102FA000E0C0803F19392DF07070B81AC80DF0706C
:102FB000F8F8DC9C0C06E6E7E3E347894F190119B2
:102FC0006D3B80803F18100E0E0F1F1F1F3F3F7F6D
:102FD0007FFFFFF7E78F0D1E3D7CF8F0E01C199591
:102FE0004011E7FFFFFFFDE39D71CF3F7FFCFEFF38
:102FF000CF831CC1E1F71618127FFEF4E1C3870FDF
:103000003EFCFC1E0F87E3F1FEFE1435F7E3C3011F
:10301000180D0183EFFFFE7F3F8FE338CFF9163B9A
:10302000FFE16C380BC0E0F0F8FD7F3F1F0FEF3F72
:103030001C3F3F3F77A41F0E0E2A802D19A11E783A
:10304000783D3F3F0B18214F070783818183C7DFFE
:10305000FFFEFDF3E6F8F1E3E7EFEFFEFCF8F3F730
:10306000EFEFCFCCC0E0E1461F9CC0F9F9C03EBAFB
:103070001964280BCFCFEFEFF7F1F8FCFEEFFB4818
:103080000FE8E6FBFEFFDFC7C3C1C38383878F72F0
:103090002E797878F0F0650215C318240F3F7F7FF2
:1030A000FFFCF8F8787C7CBCBEDFDFCFEFE7F7F7FA
:1030B000F3F3FBFBFB79797DFDFDFD3DFFDFDF07D2
:1030C0003BFF7B0138137373F3EDCC9E3FFFF3FBA3
:1030D0007F3FDEECE1F3737317180EFBFFFFFDDD9E
:1030E000DF9F7F3DFDFDF9790F1813FBF3F7F7E73D
:1030F000E7EFCFDFDFBEBE7C7C7CFCFCFC8A031AE2
:103100007F3F1D08BCFEFEA2197C180AF3F37179FB
:10311000783C3F1F3F942CF0F3F7B81816EF03C12B
:10312000C78F1F3E3870E0E0C080C0E0FFFFFEF8B0
:103130004371521CC381800F280AF0783C1E0F8710
:10314000C301072B1FFFE3F1F0F8FEF51F3E7C796A
:1031500079F3F38719140517FEFEFC982F60F0F041
:10316000F8F8FC7C1810F7F3F97979793D3C3C3C90
:103170003E1E1E1E0F01400907070703030301013E
:10318000181103070F1F1E3E3E1F070307070E1EE1
:103190001C38012B3C1C231D0F3F3E3E2E2A0326CC
:1031A0001C0101031F193A2A1F2C280D3C3C7C7C72
:1031B0007878F8F8F8F0F1F38500088BFCFCF8F863
:1031C0007070202D0102030404600906070809023B
:0431D00004060800E9
:0400000508000131BD
:00000001FF
